{
    "contractName": "EvwpContract",
    "abi": [
        {
            "inputs": [],
            "stateMutability": "nonpayable",
            "type": "constructor"
        },
        {
            "inputs": [],
            "name": "admin",
            "outputs": [
                {
                    "internalType": "address",
                    "name": "",
                    "type": "address"
                }
            ],
            "stateMutability": "view",
            "type": "function"
        },
        {
            "inputs": [],
            "name": "availableFunds",
            "outputs": [
                {
                    "internalType": "uint256",
                    "name": "",
                    "type": "uint256"
                }
            ],
            "stateMutability": "view",
            "type": "function"
        },
        {
            "inputs": [
                {
                    "internalType": "string",
                    "name": "_title",
                    "type": "string"
                },
                {
                    "internalType": "uint256",
                    "name": "_startTime",
                    "type": "uint256"
                },
                {
                    "internalType": "uint256",
                    "name": "_duration",
                    "type": "uint256"
                }
            ],
            "name": "createElection",
            "outputs": [],
            "stateMutability": "nonpayable",
            "type": "function"
        },
        {
            "inputs": [
                {
                    "internalType": "uint256",
                    "name": "_electionId",
                    "type": "uint256"
                }
            ],
            "name": "getCandidatesLength",
            "outputs": [
                {
                    "internalType": "uint256",
                    "name": "",
                    "type": "uint256"
                }
            ],
            "stateMutability": "view",
            "type": "function"
        },
        {
            "inputs": [],
            "name": "getElectionLength",
            "outputs": [
                {
                    "internalType": "uint256",
                    "name": "",
                    "type": "uint256"
                }
            ],
            "stateMutability": "view",
            "type": "function"
        },
        {
            "inputs": [
                {
                    "internalType": "uint256",
                    "name": "_candidateId",
                    "type": "uint256"
                },
                {
                    "internalType": "uint256",
                    "name": "_electionId",
                    "type": "uint256"
                }
            ],
            "name": "readCandidate",
            "outputs": [
                {
                    "internalType": "string",
                    "name": "",
                    "type": "string"
                },
                {
                    "internalType": "string",
                    "name": "",
                    "type": "string"
                },
                {
                    "internalType": "string",
                    "name": "",
                    "type": "string"
                },
                {
                    "internalType": "string",
                    "name": "",
                    "type": "string"
                },
                {
                    "internalType": "uint256",
                    "name": "",
                    "type": "uint256"
                }
            ],
            "stateMutability": "view",
            "type": "function"
        },
        {
            "inputs": [
                {
                    "internalType": "uint256",
                    "name": "_candidateId",
                    "type": "uint256"
                },
                {
                    "internalType": "uint256",
                    "name": "_electionId",
                    "type": "uint256"
                },
                {
                    "internalType": "uint256",
                    "name": "amount",
                    "type": "uint256"
                },
                {
                    "internalType": "uint256",
                    "name": "value",
                    "type": "uint256"
                }
            ],
            "name": "vote",
            "outputs": [],
            "stateMutability": "payable",
            "type": "function"
        },
        {
            "inputs": [
                {
                    "internalType": "uint256",
                    "name": "amount",
                    "type": "uint256"
                },
                {
                    "internalType": "address payable",
                    "name": "to",
                    "type": "address"
                }
            ],
            "name": "withdrawFunds",
            "outputs": [],
            "stateMutability": "nonpayable",
            "type": "function"
        },
        {
            "inputs": [
                {
                    "internalType": "uint256",
                    "name": "_electionId",
                    "type": "uint256"
                },
                {
                    "internalType": "string",
                    "name": "_name",
                    "type": "string"
                },
                {
                    "internalType": "string",
                    "name": "_image",
                    "type": "string"
                },
                {
                    "internalType": "string",
                    "name": "_description",
                    "type": "string"
                },
                {
                    "internalType": "string",
                    "name": "_occupation",
                    "type": "string"
                }
            ],
            "name": "writeCandidate",
            "outputs": [],
            "stateMutability": "nonpayable",
            "type": "function"
        }
    ],
    "bytecode": "608060405234801561001057600080fd5b50600280546001600160a01b031990811633179091556001805490911673874069fa1eb16d44d622f2e0ca25eea172369bc1179055610f9d806100546000396000f3fe6080604052600436106100865760003560e01c806378d442b21161005957806378d442b214610119578063a5ca66d514610139578063e49907fa1461016a578063f49a7a171461017f578063f851a4401461019f57600080fd5b806346fcff4c1461008b57806368c9e388146100b4578063744bfe61146100c957806374c63815146100e9575b600080fd5b34801561009757600080fd5b506100a160035481565b6040519081526020015b60405180910390f35b6100c76100c2366004610b75565b6101d7565b005b3480156100d557600080fd5b506100c76100e4366004610ba7565b6103a2565b3480156100f557600080fd5b506100a1610104366004610be3565b60009081526004602052604090206005015490565b34801561012557600080fd5b506100c7610134366004610c9f565b6103f7565b34801561014557600080fd5b50610159610154366004610d56565b610631565b6040516100ab959493929190610dc5565b34801561017657600080fd5b506000546100a1565b34801561018b57600080fd5b506100c761019a366004610e25565b6108ef565b3480156101ab57600080fd5b506002546101bf906001600160a01b031681565b6040516001600160a01b0390911681526020016100ab565b60008381526004602052604090206003810154600282015485929142916101fd916109a9565b111561024a5760405162461bcd60e51b8152602060048201526017602482015276151a1a5cc8195b1958dd1a5bdb881a185cc8195b991959604a1b60448201526064015b60405180910390fd5b6000858152600460208190526040909120908101546001600160a01b03166102845760405162461bcd60e51b815260040161024190610e73565b60008681526005602090815260408083208a84529091529081902060015460025492516323b872dd60e01b81523360048201526001600160a01b03938416602482015260448101899052919216906323b872dd90606401602060405180830381600087803b1580156102f557600080fd5b505af1158015610309573d6000803e3d6000fd5b505050506040513d601f19601f8201168201806040525081019061032d9190610eaa565b61036c5760405162461bcd60e51b815260206004820152601060248201526f2a3930b739b332b9103330b4b632b21760811b6044820152606401610241565b60035461037990876109a9565b600381905550848160050160008282546103939190610ee2565b90915550505050505050505050565b6002546001600160a01b031633146103e95760405162461bcd60e51b815260206004820152600a60248201526937b7363c9030b236b4b760b11b6044820152606401610241565b6103f382826109cc565b5050565b6000858152600460208190526040909120908101548691906001600160a01b031633146104855760405162461bcd60e51b815260206004820152603660248201527f4f6e6c7920746865206f776e6572206966207468697320656c656374696f6e2060448201527531b0b71031b0b636103a3434b990333ab731ba34b7b760511b6064820152608401610241565b60008781526004602052604090206003810154600282015489929142916104ab916109a9565b11156104f35760405162461bcd60e51b8152602060048201526017602482015276151a1a5cc8195b1958dd1a5bdb881a185cc8195b991959604a1b6044820152606401610241565b60008981526004602081905260408220908101546001600160a01b031661052c5760405162461bcd60e51b815260040161024190610e73565b6000816005015490506040518060c001604052808281526020018c81526020018b81526020018a815260200189815260200184815250600560008e815260200190815260200160002060008381526020019081526020016000206000820151816000015560208201518160010190805190602001906105ac929190610adc565b50604082015180516105c8916002840191602090910190610adc565b50606082015180516105e4916003840191602090910190610adc565b5060808201518051610600916004840191602090910190610adc565b5060a091909101516005918201558201805490600061061e83610efa565b9190505550505050505050505050505050565b600081815260046020819052604082209081015460609283928392839291906001600160a01b03166106755760405162461bcd60e51b815260040161024190610e73565b60008781526005602081815260408084208c855290915290912090810154600182018054909160028401916003850191600486019185906106b590610f15565b80601f01602080910402602001604051908101604052809291908181526020018280546106e190610f15565b801561072e5780601f106107035761010080835404028352916020019161072e565b820191906000526020600020905b81548152906001019060200180831161071157829003601f168201915b5050505050945083805461074190610f15565b80601f016020809104026020016040519081016040528092919081815260200182805461076d90610f15565b80156107ba5780601f1061078f576101008083540402835291602001916107ba565b820191906000526020600020905b81548152906001019060200180831161079d57829003601f168201915b505050505093508280546107cd90610f15565b80601f01602080910402602001604051908101604052809291908181526020018280546107f990610f15565b80156108465780601f1061081b57610100808354040283529160200191610846565b820191906000526020600020905b81548152906001019060200180831161082957829003601f168201915b5050505050925081805461085990610f15565b80601f016020809104026020016040519081016040528092919081815260200182805461088590610f15565b80156108d25780601f106108a7576101008083540402835291602001916108d2565b820191906000526020600020905b8154815290600101906020018083116108b557829003601f168201915b505050505091509650965096509650965050509295509295909350565b6040805160c0810182526000805480835260208084018881528486018890526060850187905233608086015260a0850184905291835260048152939091208251815590518051929391926109499260018501920190610adc565b50604082015160028201556060820151600382015560808201516004820180546001600160a01b0319166001600160a01b0390921691909117905560a09091015160059091015560008054908061099f83610efa565b9190505550505050565b6000806109b68385610ee2565b9050838110156109c557600080fd5b9392505050565b600354821115610a1e5760405162461bcd60e51b815260206004820152601960248201527f6e6f7420656e6f75676820617661696c61626c6546756e6473000000000000006044820152606401610241565b600354610a2b9083610ab9565b60035560015460405163a9059cbb60e01b81526001600160a01b038381166004830152602482018590529091169063a9059cbb90604401602060405180830381600087803b158015610a7c57600080fd5b505af1158015610a90573d6000803e3d6000fd5b505050506040513d601f19601f82011682018060405250810190610ab49190610eaa565b505050565b600082821115610ac857600080fd5b6000610ad48385610f50565b949350505050565b828054610ae890610f15565b90600052602060002090601f016020900481019282610b0a5760008555610b50565b82601f10610b2357805160ff1916838001178555610b50565b82800160010185558215610b50579182015b82811115610b50578251825591602001919060010190610b35565b50610b5c929150610b60565b5090565b5b80821115610b5c5760008155600101610b61565b60008060008060808587031215610b8b57600080fd5b5050823594602084013594506040840135936060013592509050565b60008060408385031215610bba57600080fd5b8235915060208301356001600160a01b0381168114610bd857600080fd5b809150509250929050565b600060208284031215610bf557600080fd5b5035919050565b634e487b7160e01b600052604160045260246000fd5b600082601f830112610c2357600080fd5b813567ffffffffffffffff80821115610c3e57610c3e610bfc565b604051601f8301601f19908116603f01168101908282118183101715610c6657610c66610bfc565b81604052838152866020858801011115610c7f57600080fd5b836020870160208301376000602085830101528094505050505092915050565b600080600080600060a08688031215610cb757600080fd5b85359450602086013567ffffffffffffffff80821115610cd657600080fd5b610ce289838a01610c12565b95506040880135915080821115610cf857600080fd5b610d0489838a01610c12565b94506060880135915080821115610d1a57600080fd5b610d2689838a01610c12565b93506080880135915080821115610d3c57600080fd5b50610d4988828901610c12565b9150509295509295909350565b60008060408385031215610d6957600080fd5b50508035926020909101359150565b6000815180845260005b81811015610d9e57602081850181015186830182015201610d82565b81811115610db0576000602083870101525b50601f01601f19169290920160200192915050565b60a081526000610dd860a0830188610d78565b8281036020840152610dea8188610d78565b90508281036040840152610dfe8187610d78565b90508281036060840152610e128186610d78565b9150508260808301529695505050505050565b600080600060608486031215610e3a57600080fd5b833567ffffffffffffffff811115610e5157600080fd5b610e5d86828701610c12565b9660208601359650604090950135949350505050565b6020808252601c908201527f7468697320656c656374696f6e20646f6573206e6f7420657869737400000000604082015260600190565b600060208284031215610ebc57600080fd5b815180151581146109c557600080fd5b634e487b7160e01b600052601160045260246000fd5b60008219821115610ef557610ef5610ecc565b500190565b6000600019821415610f0e57610f0e610ecc565b5060010190565b600181811c90821680610f2957607f821691505b60208210811415610f4a57634e487b7160e01b600052602260045260246000fd5b50919050565b600082821015610f6257610f62610ecc565b50039056fea264697066735822122046dc368ee3857064b3b0a10b1b085bdd47ae53796414cb3499bcfa2cedcfae9764736f6c63430008090033",
    "sourcePath": "c:/Users/PC/Desktop/work/dacade/celo-dapp/contract/EvwpContract.sol",
    "compiler": {
        "name": "solc",
        "version": "0.8.9+commit.e5eed63a"
    },
    "functionHashes": {
        "admin()": "f851a440",
        "availableFunds()": "46fcff4c",
        "createElection(string,uint256,uint256)": "f49a7a17",
        "getCandidatesLength(uint256)": "74c63815",
        "getElectionLength()": "e49907fa",
        "readCandidate(uint256,uint256)": "a5ca66d5",
        "vote(uint256,uint256,uint256,uint256)": "68c9e388",
        "withdrawFunds(uint256,address)": "744bfe61",
        "writeCandidate(uint256,string,string,string,string)": "78d442b2"
    },
    "gasEstimates": {
        "creation": {
            "codeDepositCost": "799400",
            "executionCost": "49299",
            "totalCost": "848699"
        },
        "external": {
            "admin()": "2425",
            "availableFunds()": "2285",
            "createElection(string,uint256,uint256)": "infinite",
            "getCandidatesLength(uint256)": "2500",
            "getElectionLength()": "2325",
            "readCandidate(uint256,uint256)": "infinite",
            "vote(uint256,uint256,uint256,uint256)": "infinite",
            "withdrawFunds(uint256,address)": "infinite",
            "writeCandidate(uint256,string,string,string,string)": "infinite"
        },
        "internal": {
            "_transferFunds(uint256,address payable)": "infinite"
        }
    }
}